{
  "contractName": "Token",
  "abi": [
    {
      "inputs": [],
      "stateMutability": "nonpayable",
      "type": "constructor"
    },
    {
      "inputs": [
        {
          "internalType": "address",
          "name": "spender",
          "type": "address"
        },
        {
          "internalType": "uint256",
          "name": "allowance",
          "type": "uint256"
        },
        {
          "internalType": "uint256",
          "name": "needed",
          "type": "uint256"
        }
      ],
      "name": "ERC20InsufficientAllowance",
      "type": "error"
    },
    {
      "inputs": [
        {
          "internalType": "address",
          "name": "sender",
          "type": "address"
        },
        {
          "internalType": "uint256",
          "name": "balance",
          "type": "uint256"
        },
        {
          "internalType": "uint256",
          "name": "needed",
          "type": "uint256"
        }
      ],
      "name": "ERC20InsufficientBalance",
      "type": "error"
    },
    {
      "inputs": [
        {
          "internalType": "address",
          "name": "approver",
          "type": "address"
        }
      ],
      "name": "ERC20InvalidApprover",
      "type": "error"
    },
    {
      "inputs": [
        {
          "internalType": "address",
          "name": "receiver",
          "type": "address"
        }
      ],
      "name": "ERC20InvalidReceiver",
      "type": "error"
    },
    {
      "inputs": [
        {
          "internalType": "address",
          "name": "sender",
          "type": "address"
        }
      ],
      "name": "ERC20InvalidSender",
      "type": "error"
    },
    {
      "inputs": [
        {
          "internalType": "address",
          "name": "spender",
          "type": "address"
        }
      ],
      "name": "ERC20InvalidSpender",
      "type": "error"
    },
    {
      "inputs": [
        {
          "internalType": "address",
          "name": "owner",
          "type": "address"
        }
      ],
      "name": "OwnableInvalidOwner",
      "type": "error"
    },
    {
      "inputs": [
        {
          "internalType": "address",
          "name": "account",
          "type": "address"
        }
      ],
      "name": "OwnableUnauthorizedAccount",
      "type": "error"
    },
    {
      "anonymous": false,
      "inputs": [
        {
          "indexed": true,
          "internalType": "address",
          "name": "owner",
          "type": "address"
        },
        {
          "indexed": true,
          "internalType": "address",
          "name": "spender",
          "type": "address"
        },
        {
          "indexed": false,
          "internalType": "uint256",
          "name": "value",
          "type": "uint256"
        }
      ],
      "name": "Approval",
      "type": "event"
    },
    {
      "anonymous": false,
      "inputs": [
        {
          "indexed": true,
          "internalType": "address",
          "name": "previousOwner",
          "type": "address"
        },
        {
          "indexed": true,
          "internalType": "address",
          "name": "newOwner",
          "type": "address"
        }
      ],
      "name": "OwnershipTransferred",
      "type": "event"
    },
    {
      "anonymous": false,
      "inputs": [
        {
          "indexed": true,
          "internalType": "address",
          "name": "from",
          "type": "address"
        },
        {
          "indexed": true,
          "internalType": "address",
          "name": "to",
          "type": "address"
        },
        {
          "indexed": false,
          "internalType": "uint256",
          "name": "value",
          "type": "uint256"
        }
      ],
      "name": "Transfer",
      "type": "event"
    },
    {
      "stateMutability": "payable",
      "type": "fallback"
    },
    {
      "inputs": [
        {
          "internalType": "address",
          "name": "owner",
          "type": "address"
        },
        {
          "internalType": "address",
          "name": "spender",
          "type": "address"
        }
      ],
      "name": "allowance",
      "outputs": [
        {
          "internalType": "uint256",
          "name": "",
          "type": "uint256"
        }
      ],
      "stateMutability": "view",
      "type": "function"
    },
    {
      "inputs": [
        {
          "internalType": "address",
          "name": "spender",
          "type": "address"
        },
        {
          "internalType": "uint256",
          "name": "value",
          "type": "uint256"
        }
      ],
      "name": "approve",
      "outputs": [
        {
          "internalType": "bool",
          "name": "",
          "type": "bool"
        }
      ],
      "stateMutability": "nonpayable",
      "type": "function"
    },
    {
      "inputs": [
        {
          "internalType": "address",
          "name": "account",
          "type": "address"
        }
      ],
      "name": "balanceOf",
      "outputs": [
        {
          "internalType": "uint256",
          "name": "",
          "type": "uint256"
        }
      ],
      "stateMutability": "view",
      "type": "function"
    },
    {
      "inputs": [
        {
          "internalType": "uint256",
          "name": "value",
          "type": "uint256"
        }
      ],
      "name": "burn",
      "outputs": [],
      "stateMutability": "nonpayable",
      "type": "function"
    },
    {
      "inputs": [
        {
          "internalType": "address",
          "name": "account",
          "type": "address"
        },
        {
          "internalType": "uint256",
          "name": "value",
          "type": "uint256"
        }
      ],
      "name": "burnFrom",
      "outputs": [],
      "stateMutability": "nonpayable",
      "type": "function"
    },
    {
      "inputs": [],
      "name": "decimals",
      "outputs": [
        {
          "internalType": "uint8",
          "name": "",
          "type": "uint8"
        }
      ],
      "stateMutability": "view",
      "type": "function"
    },
    {
      "inputs": [],
      "name": "name",
      "outputs": [
        {
          "internalType": "string",
          "name": "",
          "type": "string"
        }
      ],
      "stateMutability": "view",
      "type": "function"
    },
    {
      "inputs": [],
      "name": "owner",
      "outputs": [
        {
          "internalType": "address",
          "name": "",
          "type": "address"
        }
      ],
      "stateMutability": "view",
      "type": "function"
    },
    {
      "inputs": [],
      "name": "renounceOwnership",
      "outputs": [],
      "stateMutability": "nonpayable",
      "type": "function"
    },
    {
      "inputs": [],
      "name": "symbol",
      "outputs": [
        {
          "internalType": "string",
          "name": "",
          "type": "string"
        }
      ],
      "stateMutability": "view",
      "type": "function"
    },
    {
      "inputs": [],
      "name": "totalSupply",
      "outputs": [
        {
          "internalType": "uint256",
          "name": "",
          "type": "uint256"
        }
      ],
      "stateMutability": "view",
      "type": "function"
    },
    {
      "inputs": [
        {
          "internalType": "address",
          "name": "to",
          "type": "address"
        },
        {
          "internalType": "uint256",
          "name": "value",
          "type": "uint256"
        }
      ],
      "name": "transfer",
      "outputs": [
        {
          "internalType": "bool",
          "name": "",
          "type": "bool"
        }
      ],
      "stateMutability": "nonpayable",
      "type": "function"
    },
    {
      "inputs": [
        {
          "internalType": "address",
          "name": "from",
          "type": "address"
        },
        {
          "internalType": "address",
          "name": "to",
          "type": "address"
        },
        {
          "internalType": "uint256",
          "name": "value",
          "type": "uint256"
        }
      ],
      "name": "transferFrom",
      "outputs": [
        {
          "internalType": "bool",
          "name": "",
          "type": "bool"
        }
      ],
      "stateMutability": "nonpayable",
      "type": "function"
    },
    {
      "inputs": [
        {
          "internalType": "address",
          "name": "newOwner",
          "type": "address"
        }
      ],
      "name": "transferOwnership",
      "outputs": [],
      "stateMutability": "nonpayable",
      "type": "function"
    },
    {
      "stateMutability": "payable",
      "type": "receive"
    }
  ],
  "bytecode": "0x608060405234801562000010575f80fd5b50336040518060400160405280600581526020017f546f6b656e0000000000000000000000000000000000000000000000000000008152506040518060400160405280600381526020017f544f4b000000000000000000000000000000000000000000000000000000000081525081600390816200008f919062000751565b508060049081620000a1919062000751565b5050505f73ffffffffffffffffffffffffffffffffffffffff168173ffffffffffffffffffffffffffffffffffffffff160362000117575f6040517f1e4fbdf70000000000000000000000000000000000000000000000000000000081526004016200010e919062000878565b60405180910390fd5b62000128816200017460201b60201c565b505f6200013a6200023760201b60201c565b600a62000148919062000a1c565b633b9aca0062000159919062000a6c565b90506200016d33826200023f60201b60201c565b5062000b57565b5f60055f9054906101000a900473ffffffffffffffffffffffffffffffffffffffff1690508160055f6101000a81548173ffffffffffffffffffffffffffffffffffffffff021916908373ffffffffffffffffffffffffffffffffffffffff1602179055508173ffffffffffffffffffffffffffffffffffffffff168173ffffffffffffffffffffffffffffffffffffffff167f8be0079c531659141344cd1fd0a4f28419497f9722a3daafe3b4186f6b6457e060405160405180910390a35050565b5f6012905090565b5f73ffffffffffffffffffffffffffffffffffffffff168273ffffffffffffffffffffffffffffffffffffffff1603620002b2575f6040517fec442f05000000000000000000000000000000000000000000000000000000008152600401620002a9919062000878565b60405180910390fd5b620002c55f8383620002c960201b60201c565b5050565b5f73ffffffffffffffffffffffffffffffffffffffff168373ffffffffffffffffffffffffffffffffffffffff16036200031d578060025f82825462000310919062000ab6565b92505081905550620003ee565b5f805f8573ffffffffffffffffffffffffffffffffffffffff1673ffffffffffffffffffffffffffffffffffffffff1681526020019081526020015f2054905081811015620003a9578381836040517fe450d38c000000000000000000000000000000000000000000000000000000008152600401620003a09392919062000b01565b60405180910390fd5b8181035f808673ffffffffffffffffffffffffffffffffffffffff1673ffffffffffffffffffffffffffffffffffffffff1681526020019081526020015f2081905550505b5f73ffffffffffffffffffffffffffffffffffffffff168273ffffffffffffffffffffffffffffffffffffffff160362000437578060025f828254039250508190555062000481565b805f808473ffffffffffffffffffffffffffffffffffffffff1673ffffffffffffffffffffffffffffffffffffffff1681526020019081526020015f205f82825401925050819055505b8173ffffffffffffffffffffffffffffffffffffffff168373ffffffffffffffffffffffffffffffffffffffff167fddf252ad1be2c89b69c2b068fc378daa952ba7f163c4a11628f55a4df523b3ef83604051620004e0919062000b3c565b60405180910390a3505050565b5f81519050919050565b7f4e487b71000000000000000000000000000000000000000000000000000000005f52604160045260245ffd5b7f4e487b71000000000000000000000000000000000000000000000000000000005f52602260045260245ffd5b5f60028204905060018216806200056957607f821691505b6020821081036200057f576200057e62000524565b5b50919050565b5f819050815f5260205f209050919050565b5f6020601f8301049050919050565b5f82821b905092915050565b5f60088302620005e37fffffffffffffffffffffffffffffffffffffffffffffffffffffffffffffffff82620005a6565b620005ef8683620005a6565b95508019841693508086168417925050509392505050565b5f819050919050565b5f819050919050565b5f62000639620006336200062d8462000607565b62000610565b62000607565b9050919050565b5f819050919050565b620006548362000619565b6200066c620006638262000640565b848454620005b2565b825550505050565b5f90565b6200068262000674565b6200068f81848462000649565b505050565b5b81811015620006b657620006aa5f8262000678565b60018101905062000695565b5050565b601f8211156200070557620006cf8162000585565b620006da8462000597565b81016020851015620006ea578190505b62000702620006f98562000597565b83018262000694565b50505b505050565b5f82821c905092915050565b5f620007275f19846008026200070a565b1980831691505092915050565b5f62000741838362000716565b9150826002028217905092915050565b6200075c82620004ed565b67ffffffffffffffff811115620007785762000777620004f7565b5b62000784825462000551565b62000791828285620006ba565b5f60209050601f831160018114620007c7575f8415620007b2578287015190505b620007be858262000734565b8655506200082d565b601f198416620007d78662000585565b5f5b828110156200080057848901518255600182019150602085019450602081019050620007d9565b868310156200082057848901516200081c601f89168262000716565b8355505b6001600288020188555050505b505050505050565b5f73ffffffffffffffffffffffffffffffffffffffff82169050919050565b5f620008608262000835565b9050919050565b620008728162000854565b82525050565b5f6020820190506200088d5f83018462000867565b92915050565b7f4e487b71000000000000000000000000000000000000000000000000000000005f52601160045260245ffd5b5f8160011c9050919050565b5f808291508390505b60018511156200091d57808604811115620008f557620008f462000893565b5b6001851615620009055780820291505b80810290506200091585620008c0565b9450620008d5565b94509492505050565b5f8262000937576001905062000a09565b8162000946575f905062000a09565b81600181146200095f57600281146200096a57620009a0565b600191505062000a09565b60ff8411156200097f576200097e62000893565b5b8360020a91508482111562000999576200099862000893565b5b5062000a09565b5060208310610133831016604e8410600b8410161715620009da5782820a905083811115620009d457620009d362000893565b5b62000a09565b620009e98484846001620008cc565b9250905081840481111562000a035762000a0262000893565b5b81810290505b9392505050565b5f60ff82169050919050565b5f62000a288262000607565b915062000a358362000a10565b925062000a647fffffffffffffffffffffffffffffffffffffffffffffffffffffffffffffffff848462000926565b905092915050565b5f62000a788262000607565b915062000a858362000607565b925082820262000a958162000607565b9150828204841483151762000aaf5762000aae62000893565b5b5092915050565b5f62000ac28262000607565b915062000acf8362000607565b925082820190508082111562000aea5762000ae962000893565b5b92915050565b62000afb8162000607565b82525050565b5f60608201905062000b165f83018662000867565b62000b25602083018562000af0565b62000b34604083018462000af0565b949350505050565b5f60208201905062000b515f83018462000af0565b92915050565b6113c38062000b655f395ff3fe6080604052600436106100e0575f3560e01c8063715018a61161007e57806395d89b411161005857806395d89b411461031d578063a9059cbb14610347578063dd62ed3e14610383578063f2fde38b146103bf57610120565b8063715018a6146102b557806379cc6790146102cb5780638da5cb5b146102f357610120565b806323b872dd116100ba57806323b872dd146101eb578063313ce5671461022757806342966c681461025157806370a082311461027957610120565b806306fdde031461015b578063095ea7b31461018557806318160ddd146101c157610120565b36610120576040517f08c379a000000000000000000000000000000000000000000000000000000000815260040161011790610f11565b60405180910390fd5b6040517f08c379a000000000000000000000000000000000000000000000000000000000815260040161015290610f79565b60405180910390fd5b348015610166575f80fd5b5061016f6103e7565b60405161017c9190611011565b60405180910390f35b348015610190575f80fd5b506101ab60048036038101906101a691906110c2565b610477565b6040516101b8919061111a565b60405180910390f35b3480156101cc575f80fd5b506101d5610499565b6040516101e29190611142565b60405180910390f35b3480156101f6575f80fd5b50610211600480360381019061020c919061115b565b6104a2565b60405161021e919061111a565b60405180910390f35b348015610232575f80fd5b5061023b6104d0565b60405161024891906111c6565b60405180910390f35b34801561025c575f80fd5b50610277600480360381019061027291906111df565b6104d8565b005b348015610284575f80fd5b5061029f600480360381019061029a919061120a565b6104ec565b6040516102ac9190611142565b60405180910390f35b3480156102c0575f80fd5b506102c9610531565b005b3480156102d6575f80fd5b506102f160048036038101906102ec91906110c2565b610544565b005b3480156102fe575f80fd5b50610307610564565b6040516103149190611244565b60405180910390f35b348015610328575f80fd5b5061033161058c565b60405161033e9190611011565b60405180910390f35b348015610352575f80fd5b5061036d600480360381019061036891906110c2565b61061c565b60405161037a919061111a565b60405180910390f35b34801561038e575f80fd5b506103a960048036038101906103a4919061125d565b61063e565b6040516103b69190611142565b60405180910390f35b3480156103ca575f80fd5b506103e560048036038101906103e0919061120a565b6106c0565b005b6060600380546103f6906112c8565b80601f0160208091040260200160405190810160405280929190818152602001828054610422906112c8565b801561046d5780601f106104445761010080835404028352916020019161046d565b820191905f5260205f20905b81548152906001019060200180831161045057829003601f168201915b5050505050905090565b5f80610481610744565b905061048e81858561074b565b600191505092915050565b5f600254905090565b5f806104ac610744565b90506104b985828561075d565b6104c48585856107f0565b60019150509392505050565b5f6012905090565b6104e96104e3610744565b826108e0565b50565b5f805f8373ffffffffffffffffffffffffffffffffffffffff1673ffffffffffffffffffffffffffffffffffffffff1681526020019081526020015f20549050919050565b61053961095f565b6105425f6109e6565b565b61055682610550610744565b8361075d565b61056082826108e0565b5050565b5f60055f9054906101000a900473ffffffffffffffffffffffffffffffffffffffff16905090565b60606004805461059b906112c8565b80601f01602080910402602001604051908101604052809291908181526020018280546105c7906112c8565b80156106125780601f106105e957610100808354040283529160200191610612565b820191905f5260205f20905b8154815290600101906020018083116105f557829003601f168201915b5050505050905090565b5f80610626610744565b90506106338185856107f0565b600191505092915050565b5f60015f8473ffffffffffffffffffffffffffffffffffffffff1673ffffffffffffffffffffffffffffffffffffffff1681526020019081526020015f205f8373ffffffffffffffffffffffffffffffffffffffff1673ffffffffffffffffffffffffffffffffffffffff1681526020019081526020015f2054905092915050565b6106c861095f565b5f73ffffffffffffffffffffffffffffffffffffffff168173ffffffffffffffffffffffffffffffffffffffff1603610738575f6040517f1e4fbdf700000000000000000000000000000000000000000000000000000000815260040161072f9190611244565b60405180910390fd5b610741816109e6565b50565b5f33905090565b6107588383836001610aa9565b505050565b5f610768848461063e565b90507fffffffffffffffffffffffffffffffffffffffffffffffffffffffffffffffff8110156107ea57818110156107db578281836040517ffb8f41b20000000000000000000000000000000000000000000000000000000081526004016107d2939291906112f8565b60405180910390fd5b6107e984848484035f610aa9565b5b50505050565b5f73ffffffffffffffffffffffffffffffffffffffff168373ffffffffffffffffffffffffffffffffffffffff1603610860575f6040517f96c6fd1e0000000000000000000000000000000000000000000000000000000081526004016108579190611244565b60405180910390fd5b5f73ffffffffffffffffffffffffffffffffffffffff168273ffffffffffffffffffffffffffffffffffffffff16036108d0575f6040517fec442f050000000000000000000000000000000000000000000000000000000081526004016108c79190611244565b60405180910390fd5b6108db838383610c78565b505050565b5f73ffffffffffffffffffffffffffffffffffffffff168273ffffffffffffffffffffffffffffffffffffffff1603610950575f6040517f96c6fd1e0000000000000000000000000000000000000000000000000000000081526004016109479190611244565b60405180910390fd5b61095b825f83610c78565b5050565b610967610744565b73ffffffffffffffffffffffffffffffffffffffff16610985610564565b73ffffffffffffffffffffffffffffffffffffffff16146109e4576109a8610744565b6040517f118cdaa70000000000000000000000000000000000000000000000000000000081526004016109db9190611244565b60405180910390fd5b565b5f60055f9054906101000a900473ffffffffffffffffffffffffffffffffffffffff1690508160055f6101000a81548173ffffffffffffffffffffffffffffffffffffffff021916908373ffffffffffffffffffffffffffffffffffffffff1602179055508173ffffffffffffffffffffffffffffffffffffffff168173ffffffffffffffffffffffffffffffffffffffff167f8be0079c531659141344cd1fd0a4f28419497f9722a3daafe3b4186f6b6457e060405160405180910390a35050565b5f73ffffffffffffffffffffffffffffffffffffffff168473ffffffffffffffffffffffffffffffffffffffff1603610b19575f6040517fe602df05000000000000000000000000000000000000000000000000000000008152600401610b109190611244565b60405180910390fd5b5f73ffffffffffffffffffffffffffffffffffffffff168373ffffffffffffffffffffffffffffffffffffffff1603610b89575f6040517f94280d62000000000000000000000000000000000000000000000000000000008152600401610b809190611244565b60405180910390fd5b8160015f8673ffffffffffffffffffffffffffffffffffffffff1673ffffffffffffffffffffffffffffffffffffffff1681526020019081526020015f205f8573ffffffffffffffffffffffffffffffffffffffff1673ffffffffffffffffffffffffffffffffffffffff1681526020019081526020015f20819055508015610c72578273ffffffffffffffffffffffffffffffffffffffff168473ffffffffffffffffffffffffffffffffffffffff167f8c5be1e5ebec7d5bd14f71427d1e84f3dd0314c0f7b2291e5b200ac8c7c3b92584604051610c699190611142565b60405180910390a35b50505050565b5f73ffffffffffffffffffffffffffffffffffffffff168373ffffffffffffffffffffffffffffffffffffffff1603610cc8578060025f828254610cbc919061135a565b92505081905550610d96565b5f805f8573ffffffffffffffffffffffffffffffffffffffff1673ffffffffffffffffffffffffffffffffffffffff1681526020019081526020015f2054905081811015610d51578381836040517fe450d38c000000000000000000000000000000000000000000000000000000008152600401610d48939291906112f8565b60405180910390fd5b8181035f808673ffffffffffffffffffffffffffffffffffffffff1673ffffffffffffffffffffffffffffffffffffffff1681526020019081526020015f2081905550505b5f73ffffffffffffffffffffffffffffffffffffffff168273ffffffffffffffffffffffffffffffffffffffff1603610ddd578060025f8282540392505081905550610e27565b805f808473ffffffffffffffffffffffffffffffffffffffff1673ffffffffffffffffffffffffffffffffffffffff1681526020019081526020015f205f82825401925050819055505b8173ffffffffffffffffffffffffffffffffffffffff168373ffffffffffffffffffffffffffffffffffffffff167fddf252ad1be2c89b69c2b068fc378daa952ba7f163c4a11628f55a4df523b3ef83604051610e849190611142565b60405180910390a3505050565b5f82825260208201905092915050565b7f44697265637420455448207472616e7366657273206e6f7420616363657074655f8201527f6400000000000000000000000000000000000000000000000000000000000000602082015250565b5f610efb602183610e91565b9150610f0682610ea1565b604082019050919050565b5f6020820190508181035f830152610f2881610eef565b9050919050565b7f46756e6374696f6e206e6f7420666f756e6400000000000000000000000000005f82015250565b5f610f63601283610e91565b9150610f6e82610f2f565b602082019050919050565b5f6020820190508181035f830152610f9081610f57565b9050919050565b5f81519050919050565b5f5b83811015610fbe578082015181840152602081019050610fa3565b5f8484015250505050565b5f601f19601f8301169050919050565b5f610fe382610f97565b610fed8185610e91565b9350610ffd818560208601610fa1565b61100681610fc9565b840191505092915050565b5f6020820190508181035f8301526110298184610fd9565b905092915050565b5f80fd5b5f73ffffffffffffffffffffffffffffffffffffffff82169050919050565b5f61105e82611035565b9050919050565b61106e81611054565b8114611078575f80fd5b50565b5f8135905061108981611065565b92915050565b5f819050919050565b6110a18161108f565b81146110ab575f80fd5b50565b5f813590506110bc81611098565b92915050565b5f80604083850312156110d8576110d7611031565b5b5f6110e58582860161107b565b92505060206110f6858286016110ae565b9150509250929050565b5f8115159050919050565b61111481611100565b82525050565b5f60208201905061112d5f83018461110b565b92915050565b61113c8161108f565b82525050565b5f6020820190506111555f830184611133565b92915050565b5f805f6060848603121561117257611171611031565b5b5f61117f8682870161107b565b93505060206111908682870161107b565b92505060406111a1868287016110ae565b9150509250925092565b5f60ff82169050919050565b6111c0816111ab565b82525050565b5f6020820190506111d95f8301846111b7565b92915050565b5f602082840312156111f4576111f3611031565b5b5f611201848285016110ae565b91505092915050565b5f6020828403121561121f5761121e611031565b5b5f61122c8482850161107b565b91505092915050565b61123e81611054565b82525050565b5f6020820190506112575f830184611235565b92915050565b5f806040838503121561127357611272611031565b5b5f6112808582860161107b565b92505060206112918582860161107b565b9150509250929050565b7f4e487b71000000000000000000000000000000000000000000000000000000005f52602260045260245ffd5b5f60028204905060018216806112df57607f821691505b6020821081036112f2576112f161129b565b5b50919050565b5f60608201905061130b5f830186611235565b6113186020830185611133565b6113256040830184611133565b949350505050565b7f4e487b71000000000000000000000000000000000000000000000000000000005f52601160045260245ffd5b5f6113648261108f565b915061136f8361108f565b92508282019050808211156113875761138661132d565b5b9291505056fea26469706673582212202d1fb2ab3042cc5a951cd98ac95c617af021dc17c9e800fd9aff76fdef5aa3c264736f6c63430008150033",
  "immutableReferences": {},
  "source": "// SPDX-License-Identifier: MIT\npragma solidity ^0.8.0;\n\nimport \"@openzeppelin/contracts/token/ERC20/ERC20.sol\";\nimport \"@openzeppelin/contracts/token/ERC20/extensions/ERC20Burnable.sol\";\nimport \"@openzeppelin/contracts/access/Ownable.sol\";\n\n/**\n * Token\n *\n * @title A fixed supply ERC20 token contract with additional features.\n * Based on ERC20 standard: https://eips.ethereum.org/EIPS/eip-20\n */\ncontract Token is ERC20, ERC20Burnable, Ownable {\n    /**\n     * Constructs the Token contract and gives all of the supply to the address\n     * that deployed it. The fixed supply is 1 billion tokens with 18 decimal places.\n     */\n    constructor() ERC20(\"Token\", \"TOK\") Ownable(msg.sender) {\n        uint256 totalSupply = 1000000000 * 10 ** decimals();\n        _mint(msg.sender, totalSupply);\n    }\n\n    /**\n     * @dev Fallback function to prevent accidental ETH transfers\n     */\n    receive() external payable {\n        revert(\"Direct ETH transfers not accepted\");\n    }\n\n    fallback() external payable {\n        revert(\"Function not found\");\n    }\n}\n",
  "sourcePath": "/Users/hanafemira/development/MyToken/contracts/Token.sol",
  "compiler": {
    "name": "solc",
    "version": "0.8.21+commit.d9974bed.Emscripten.clang"
  },
  "schemaVersion": "3.4.16",
  "updatedAt": "2025-03-23T08:51:37.975Z",
  "devdoc": {
    "errors": {
      "ERC20InsufficientAllowance(address,uint256,uint256)": [
        {
          "details": "Indicates a failure with the `spender`s `allowance`. Used in transfers.",
          "params": {
            "allowance": "Amount of tokens a `spender` is allowed to operate with.",
            "needed": "Minimum amount required to perform a transfer.",
            "spender": "Address that may be allowed to operate on tokens without being their owner."
          }
        }
      ],
      "ERC20InsufficientBalance(address,uint256,uint256)": [
        {
          "details": "Indicates an error related to the current `balance` of a `sender`. Used in transfers.",
          "params": {
            "balance": "Current balance for the interacting account.",
            "needed": "Minimum amount required to perform a transfer.",
            "sender": "Address whose tokens are being transferred."
          }
        }
      ],
      "ERC20InvalidApprover(address)": [
        {
          "details": "Indicates a failure with the `approver` of a token to be approved. Used in approvals.",
          "params": {
            "approver": "Address initiating an approval operation."
          }
        }
      ],
      "ERC20InvalidReceiver(address)": [
        {
          "details": "Indicates a failure with the token `receiver`. Used in transfers.",
          "params": {
            "receiver": "Address to which tokens are being transferred."
          }
        }
      ],
      "ERC20InvalidSender(address)": [
        {
          "details": "Indicates a failure with the token `sender`. Used in transfers.",
          "params": {
            "sender": "Address whose tokens are being transferred."
          }
        }
      ],
      "ERC20InvalidSpender(address)": [
        {
          "details": "Indicates a failure with the `spender` to be approved. Used in approvals.",
          "params": {
            "spender": "Address that may be allowed to operate on tokens without being their owner."
          }
        }
      ],
      "OwnableInvalidOwner(address)": [
        {
          "details": "The owner is not a valid owner account. (eg. `address(0)`)"
        }
      ],
      "OwnableUnauthorizedAccount(address)": [
        {
          "details": "The caller account is not authorized to perform an operation."
        }
      ]
    },
    "events": {
      "Approval(address,address,uint256)": {
        "details": "Emitted when the allowance of a `spender` for an `owner` is set by a call to {approve}. `value` is the new allowance."
      },
      "Transfer(address,address,uint256)": {
        "details": "Emitted when `value` tokens are moved from one account (`from`) to another (`to`). Note that `value` may be zero."
      }
    },
    "kind": "dev",
    "methods": {
      "allowance(address,address)": {
        "details": "See {IERC20-allowance}."
      },
      "approve(address,uint256)": {
        "details": "See {IERC20-approve}. NOTE: If `value` is the maximum `uint256`, the allowance is not updated on `transferFrom`. This is semantically equivalent to an infinite approval. Requirements: - `spender` cannot be the zero address."
      },
      "balanceOf(address)": {
        "details": "See {IERC20-balanceOf}."
      },
      "burn(uint256)": {
        "details": "Destroys a `value` amount of tokens from the caller. See {ERC20-_burn}."
      },
      "burnFrom(address,uint256)": {
        "details": "Destroys a `value` amount of tokens from `account`, deducting from the caller's allowance. See {ERC20-_burn} and {ERC20-allowance}. Requirements: - the caller must have allowance for ``accounts``'s tokens of at least `value`."
      },
      "decimals()": {
        "details": "Returns the number of decimals used to get its user representation. For example, if `decimals` equals `2`, a balance of `505` tokens should be displayed to a user as `5.05` (`505 / 10 ** 2`). Tokens usually opt for a value of 18, imitating the relationship between Ether and Wei. This is the default value returned by this function, unless it's overridden. NOTE: This information is only used for _display_ purposes: it in no way affects any of the arithmetic of the contract, including {IERC20-balanceOf} and {IERC20-transfer}."
      },
      "name()": {
        "details": "Returns the name of the token."
      },
      "owner()": {
        "details": "Returns the address of the current owner."
      },
      "renounceOwnership()": {
        "details": "Leaves the contract without owner. It will not be possible to call `onlyOwner` functions. Can only be called by the current owner. NOTE: Renouncing ownership will leave the contract without an owner, thereby disabling any functionality that is only available to the owner."
      },
      "symbol()": {
        "details": "Returns the symbol of the token, usually a shorter version of the name."
      },
      "totalSupply()": {
        "details": "See {IERC20-totalSupply}."
      },
      "transfer(address,uint256)": {
        "details": "See {IERC20-transfer}. Requirements: - `to` cannot be the zero address. - the caller must have a balance of at least `value`."
      },
      "transferFrom(address,address,uint256)": {
        "details": "See {IERC20-transferFrom}. Skips emitting an {Approval} event indicating an allowance update. This is not required by the ERC. See {xref-ERC20-_approve-address-address-uint256-bool-}[_approve]. NOTE: Does not update the allowance if the current allowance is the maximum `uint256`. Requirements: - `from` and `to` cannot be the zero address. - `from` must have a balance of at least `value`. - the caller must have allowance for ``from``'s tokens of at least `value`."
      },
      "transferOwnership(address)": {
        "details": "Transfers ownership of the contract to a new account (`newOwner`). Can only be called by the current owner."
      }
    },
    "title": "A fixed supply ERC20 token contract with additional features. Based on ERC20 standard: https://eips.ethereum.org/EIPS/eip-20",
    "version": 1
  },
  "userdoc": {
    "kind": "user",
    "methods": {
      "constructor": {
        "notice": "Constructs the Token contract and gives all of the supply to the address that deployed it. The fixed supply is 1 billion tokens with 18 decimal places."
      }
    },
    "notice": "Token",
    "version": 1
  }
}